{
  "contractName": "SongRegistry",
  "abi": [
    {
      "constant": true,
      "inputs": [
        {
          "internalType": "uint256",
          "name": "",
          "type": "uint256"
        }
      ],
      "name": "songs",
      "outputs": [
        {
          "internalType": "address",
          "name": "owner",
          "type": "address"
        },
        {
          "internalType": "string",
          "name": "title",
          "type": "string"
        },
        {
          "internalType": "string",
          "name": "url",
          "type": "string"
        },
        {
          "internalType": "uint256",
          "name": "price",
          "type": "uint256"
        }
      ],
      "payable": false,
      "stateMutability": "view",
      "type": "function"
    },
    {
      "constant": false,
      "inputs": [
        {
          "internalType": "string",
          "name": "_title",
          "type": "string"
        },
        {
          "internalType": "string",
          "name": "_url",
          "type": "string"
        },
        {
          "internalType": "uint256",
          "name": "_price",
          "type": "uint256"
        }
      ],
      "name": "register",
      "outputs": [
        {
          "internalType": "uint256",
          "name": "",
          "type": "uint256"
        }
      ],
      "payable": false,
      "stateMutability": "nonpayable",
      "type": "function"
    },
    {
      "constant": true,
      "inputs": [],
      "name": "numberOfSongs",
      "outputs": [
        {
          "internalType": "uint256",
          "name": "",
          "type": "uint256"
        }
      ],
      "payable": false,
      "stateMutability": "view",
      "type": "function"
    },
    {
      "constant": true,
      "inputs": [
        {
          "internalType": "uint256",
          "name": "_songId",
          "type": "uint256"
        }
      ],
      "name": "isBuyer",
      "outputs": [
        {
          "internalType": "bool",
          "name": "",
          "type": "bool"
        }
      ],
      "payable": false,
      "stateMutability": "view",
      "type": "function"
    },
    {
      "constant": false,
      "inputs": [
        {
          "internalType": "uint256",
          "name": "_songId",
          "type": "uint256"
        }
      ],
      "name": "buy",
      "outputs": [],
      "payable": true,
      "stateMutability": "payable",
      "type": "function"
    }
  ],
  "bytecode": "0x608060405234801561001057600080fd5b50610a4d806100206000396000f3fe60806040526004361061004a5760003560e01c8063304cff301461004f5780634d8a0b01146101a9578063d96a094a146101d4578063e8a6055814610202578063fecf415a1461037f575b600080fd5b34801561005b57600080fd5b506100886004803603602081101561007257600080fd5b81019080803590602001909291905050506103d2565b604051808573ffffffffffffffffffffffffffffffffffffffff1673ffffffffffffffffffffffffffffffffffffffff1681526020018060200180602001848152602001838103835286818151815260200191508051906020019080838360005b838110156101045780820151818401526020810190506100e9565b50505050905090810190601f1680156101315780820380516001836020036101000a031916815260200191505b50838103825285818151815260200191508051906020019080838360005b8381101561016a57808201518184015260208101905061014f565b50505050905090810190601f1680156101975780820380516001836020036101000a031916815260200191505b50965050505050505060405180910390f35b3480156101b557600080fd5b506101be61055f565b6040518082815260200191505060405180910390f35b610200600480360360208110156101ea57600080fd5b810190808035906020019092919050505061056b565b005b34801561020e57600080fd5b506103696004803603606081101561022557600080fd5b810190808035906020019064010000000081111561024257600080fd5b82018360208201111561025457600080fd5b8035906020019184600183028401116401000000008311171561027657600080fd5b91908080601f016020809104026020016040519081016040528093929190818152602001838380828437600081840152601f19601f820116905080830192505050505050509192919290803590602001906401000000008111156102d957600080fd5b8201836020820111156102eb57600080fd5b8035906020019184600183028401116401000000008311171561030d57600080fd5b91908080601f016020809104026020016040519081016040528093929190818152602001838380828437600081840152601f19601f820116905080830192505050505050509192919290803590602001909291905050506106e8565b6040518082815260200191505060405180910390f35b34801561038b57600080fd5b506103b8600480360360208110156103a257600080fd5b8101908080359060200190929190505050610879565b604051808215151515815260200191505060405180910390f35b600081815481106103df57fe5b90600052602060002090600402016000915090508060000160009054906101000a900473ffffffffffffffffffffffffffffffffffffffff1690806001018054600181600116156101000203166002900480601f0160208091040260200160405190810160405280929190818152602001828054600181600116156101000203166002900480156104b15780601f10610486576101008083540402835291602001916104b1565b820191906000526020600020905b81548152906001019060200180831161049457829003601f168201915b505050505090806002018054600181600116156101000203166002900480601f01602080910402602001604051908101604052809291908181526020018280546001816001161561010002031660029004801561054f5780601f106105245761010080835404028352916020019161054f565b820191906000526020600020905b81548152906001019060200180831161053257829003601f168201915b5050505050908060030154905084565b60008080549050905090565b600080828154811061057957fe5b9060005260206000209060040201905080600301543414610602576040517f08c379a000000000000000000000000000000000000000000000000000000000815260040180806020018281038252601a8152602001807f56616c756520646f6573206e6f74206d6174636820707269636500000000000081525060200191505060405180910390fd5b600160008381526020019081526020016000203390806001815401808255809150509060018203906000526020600020016000909192909190916101000a81548173ffffffffffffffffffffffffffffffffffffffff021916908373ffffffffffffffffffffffffffffffffffffffff160217905550508060000160009054906101000a900473ffffffffffffffffffffffffffffffffffffffff1673ffffffffffffffffffffffffffffffffffffffff166108fc349081150290604051600060405180830381858888f193505050501580156106e3573d6000803e3d6000fd5b505050565b60006106f2610935565b60405180608001604052803373ffffffffffffffffffffffffffffffffffffffff1681526020018681526020018581526020018481525090506000819080600181540180825580915050906001820390600052602060002090600402016000909192909190915060008201518160000160006101000a81548173ffffffffffffffffffffffffffffffffffffffff021916908373ffffffffffffffffffffffffffffffffffffffff16021790555060208201518160010190805190602001906107bc929190610973565b5060408201518160020190805190602001906107d9929190610973565b50606082015181600301555050506001600060016000805490500381526020019081526020016000203390806001815401808255809150509060018203906000526020600020016000909192909190916101000a81548173ffffffffffffffffffffffffffffffffffffffff021916908373ffffffffffffffffffffffffffffffffffffffff160217905550506001600080549050039150509392505050565b600080600160008481526020019081526020016000209050600080600090505b828054905081101561092a573373ffffffffffffffffffffffffffffffffffffffff168382815481106108c857fe5b9060005260206000200160009054906101000a900473ffffffffffffffffffffffffffffffffffffffff1673ffffffffffffffffffffffffffffffffffffffff161415610918576001915061091d565b600091505b8080600101915050610899565b508092505050919050565b6040518060800160405280600073ffffffffffffffffffffffffffffffffffffffff1681526020016060815260200160608152602001600081525090565b828054600181600116156101000203166002900490600052602060002090601f016020900481019282601f106109b457805160ff19168380011785556109e2565b828001600101855582156109e2579182015b828111156109e15782518255916020019190600101906109c6565b5b5090506109ef91906109f3565b5090565b610a1591905b80821115610a115760008160009055506001016109f9565b5090565b9056fea265627a7a723158206ee5d4ad6fbb0c30812e042ded9a364aac06e1dc8458725c7c4a2143c3db904064736f6c63430005100032",
  "source": "pragma solidity >=0.5.0;\n\ncontract SongRegistry {\n\n//address payable owner is other way, check bottom\n    struct Song {\n        address owner;\n        string title;\n        string url;\n        uint price;\n    }\n\n    Song[] public songs;\n//array of addresses\n    mapping (uint => address[]) buyers;\n\n//struct must use memory\n    function register(string memory _title, string memory _url, uint _price) public returns (uint) {\n        Song memory song = Song(msg.sender , _title, _url, _price);\n        songs.push(song);\n        buyers[songs.length - 1].push(msg.sender);\n        return songs.length - 1;\n    }\n\n    function numberOfSongs() public view returns(uint) {\n        return songs.length;\n    }\n//looping is better than storing\n//song Id is indices in the buyer array\n    function isBuyer(uint _songId) public view returns (bool) {\n//getting this from storage\n        address[] storage songBuyers = buyers[_songId];\n        bool buyer;\n        for (uint i = 0; i < (songBuyers.length); i++){\n            if (songBuyers[i] == msg.sender) {\n                buyer = true;\n            } else {\n                buyer = false;\n            }\n        }\n        return buyer;\n    }\n\n    function buy(uint _songId) public payable {\n        Song storage song = songs[_songId];\n        require(msg.value == song.price, \"Value does not match price\");\n        buyers[_songId].push(msg.sender);\n        address(uint160(song.owner)).transfer(msg.value);\n//if top is set to payable: address.owner.transfer(msg.value);\n    }\n}",
  "sourcePath": "/Users/Bingle/SongRegistry/contracts/SongRegistry.sol",
  "compiler": {
    "name": "solc",
    "version": "0.5.16+commit.9c3226ce.Emscripten.clang"
  },
  "schemaVersion": "3.0.23",
  "updatedAt": "2020-02-21T09:44:43.800Z",
  "devdoc": {
    "methods": {}
  },
  "userdoc": {
    "methods": {}
  }
}